:020000040800F2
:10000000B00B00209101000823190008A515000875
:100010002119000817060008F11E00080000000062
:10002000000000000000000000000000A71C000805
:100030001906000800000000A51C0008A91C000803
:10004000AB010008AB010008AB010008AB010008E0
:10005000AB010008AB010008AB010008AB010008D0
:10006000AB010008AB010008AB010008AB010008C0
:10007000AB010008AB010008AB010008AB010008B0
:10008000AB010008AB010008AB010008AB010008A0
:10009000AB010008AB010008AB010008AB01000890
:1000A000AB010008AB010008AB010008AB01000880
:1000B000AB010008AB010008AB010008AB01000870
:1000C000AB010008AB010008AB010008AB01000860
:1000D000AB010008E51E0008AB010008AB010008F9
:1000E000AB010008AB010008AB01000800F002F80A
:1000F00000F03FF80AA090E8000C82448344AAF183
:100100000107DA4501D100F034F8AFF2090EBAE880
:100110000F0013F0010F18BFFB1A43F0010318473B
:100120006825000088250000103A24BF78C878C1EF
:10013000FAD8520724BF30C830C144BF04680C60ED
:10014000704700000023002400250026103A28BF35
:1001500078C1FBD8520728BF30C148BF0B60704739
:10016000642900F07D80002070471FB51FBD10B5C9
:1001700010BD00F016FA1146FFF7F7FF01F0E2FE9E
:1001800000F034FA03B4FFF7F2FF03BC00F03CFACE
:100190000948804709480047FEE7FEE7FEE7FEE71B
:1001A000FEE7FEE7FEE7FEE7FEE7FEE70448054957
:1001B000054A064B704700000B1D0008ED000008C3
:1001C000B0050020B00B0020B0070020B0070020D1
:1001D0000FB41CB5074B06AA7B44694600900598EE
:1001E00000F095F90020694600F0A4F91CBC5DF808
:1001F00014FB0000590300002DE9F0410E460446AF
:10020000002020622046E168884730B3252805D0C9
:10021000D4E901219047206A401CF2E7E1682046BA
:1002200000278847050018D0A5F14100192802D8F9
:1002300020354FF400673246294620462760FFF7F5
:100240008FFF40B1012804D0F61D26F007060836BE
:10025000D8E7361DD6E72846DAE7206ABDE8F08100
:100260002DE9F0410646002410687529314616A58F
:1002700010D0AFF30080002802DA404213A507E057
:1002800031688A0701D512A502E0490704D511A5F6
:10029000012401E0AFF3008000210A2206F12407C7
:1002A00009E0B0FBF2FCB0FBF2F302FB1C003030C3
:1002B00078541846491C0028F3D123462A46304674
:1002C000BDE8F04100F0C5B8000000002D000000BE
:1002D0002B0000002000000040EA010310B59B073E
:1002E0000FD1042A0DD310C808C9121F9C42F8D0A0
:1002F00020BA19BA884201D9012010BD4FF0FF3051
:1003000010BD1AB1D30703D0521C07E0002010BD66
:1003100010F8013B11F8014B1B1B07D110F8013BF2
:1003200011F8014B1B1B01D1921EF1D1184610BDD3
:10033000032A40F2308010F0030C00F0158011F811
:10034000013BBCF1020F624498BF11F801CB00F8E9
:10035000013B38BF11F8013BA2F1040298BF00F83D
:1003600001CB38BF00F8013B11F0030300F0E78038
:10037000083AC0F0088051F8043B083A51F804CB21
:10038000A0E80810F5E7121D5CBF51F8043B40F8E7
:10039000043BAFF30080D20724BF11F8013B11F8F2
:1003A00001CB48BF11F8012B24BF00F8013B00F836
:1003B00001CB48BF00F8012B70474FF00002042921
:1003C000C0F0128010F0030C00F01B80CCF1040C84
:1003D000BCF1020F18BF00F8012BA8BF20F8022BB8
:1003E000A1EB0C0100F00DB85FEAC17C24BF00F85E
:1003F000012B00F8012B48BF00F8012B70474FF08C
:10040000000200B5134694469646203922BFA0E864
:100410000C50A0E80C50B1F12001BFF4F7AF090770
:1004200028BFA0E80C5048BF0CC05DF804EB890061
:1004300028BF40F8042B08BF704748BF20F8022BA4
:1004400011F0804F18BF00F8012B704770477047BC
:1004500070472DE9F0470D4699469246044600F153
:1004600024080168880604D5E06921F010012160A4
:1004700000E00120A84201DD471B00E00027A16940
:100480007A1902EB0900081AA0612078C00602D48C
:100490002046AFF30080002608E0D4E901211AF8D5
:1004A00006009047206A401C761C20624E45F4DB13
:1004B0002078C0060AD52046AFF3008006E0D4E9D4
:1004C000012130209047206A401C2062381EA7F18D
:1004D0000107F4DC07E0D4E9012118F80500904792
:1004E000206A401C2062281EA5F10105F3DC20468D
:1004F000AFF300802078000602D50220BDE8F08727
:100500000120FBE701694A1C02610878704700B5C9
:100510008FB0CDE901310021059105497944CDE93C
:10052000031011466846FFF767FE0FB000BD0000DC
:10053000E5FFFFFF0A6802F8010B0A60704710B57B
:10054000203AC0F00B80B1E81850203AA0E81850CB
:10055000B1E81850A0E81850BFF4F5AF5FEA027C8C
:1005600024BFB1E81850A0E8185044BF18C918C0FB
:10057000BDE810405FEA827C24BF51F8043B40F89C
:10058000043B08BF7047D20728BF31F8023B48BF81
:1005900011F8012B28BF20F8023B48BF00F8012BBF
:1005A0007047754600F02CF8AE4605006946534684
:1005B00020F00700854618B020B5FFF7F7FDBDE82D
:1005C00020404FF000064FF000074FF000084FF0BA
:1005D000000B21F00701AC46ACE8C009ACE8C0094B
:1005E000ACE8C009ACE8C0098D46704710B50446B8
:1005F000AFF300802046BDE81040FFF7C3BD000008
:10060000004870474C05002001491820ABBEFEE7AA
:10061000260002007047FEE7704772B6FEE710B58D
:1006200090F821100022022905D00421816380F86E
:100630002020012010BD01680B6823F00E030B6021
:1006400001680B6823F001030B6090F84030C46B25
:10065000012101FA03F3636080F8211080F8202063
:10066000104610BD10B590F821100024022903D0C7
:100670000421816301243DE001680A6822F00E0232
:100680000A6001680A6822F001020A601A4A0168D9
:10069000914201D1012121E0174A1432914201D146
:1006A00010211BE0144A2832914201D1891515E02E
:1006B000114A3C32914201D189140FE00E4A503266
:1006C000914202D14FF4803108E00B4A64329142EA
:1006D00002D14FF4801101E04FF08071064A083AD0
:1006E0005160012180F82110002180F82010416B19
:1006F00001B18847204610BD0800024070B504468D
:1007000000F0FEF80546601C02D00448007804445E
:1007100000F0F6F8401BA042FAD370BD080000209C
:100720002DE9F84FDFF8B8910024A9F1040B234616
:100730000F2709F1040AABF1040EC9E00125A54019
:100740002A40AA427DD1674ED1F804C0ACEB06081E
:10075000B44532D014DCBCF1030F3AD009DCBCF153
:10076000000F2AD0BCF1010F1CD0BCF1020F31D117
:100770001DE0BCF1110F17D0BCF1120F2AD119E006
:10078000B8F5881F19D006DCB8F5803F15D0B8F54C
:10079000801F1FD111E0B8F5001F0ED0B8F5041F5F
:1007A00018D10AE0CB6815E0CB681B1D12E0CB68BE
:1007B00008330FE0CB680C330CE08B682BB1012BB6
:1007C0004FF0080303D0456104E0042302E0056113
:1007D00000E00023FF2A01D8064601E000F10406EC
:1007E0004FEA840501D9A5F12005D6F8008007FA63
:1007F00005FC28EA0C0803FA05F548EA0508C6F8DE
:1008000000804D68ED0062D5374DAE6946F00106B7
:10081000AE61AD6924F0030605F001050095334D86
:1008200006EB050CDCF80850A607360F07FA06F8A9
:1008300025EA0805DFF8B880404503D14FF00008ED
:1008400017E044E0DFF8AC80404502D14FF00108EA
:100850000FE0DFF8A480404502D14FF0020808E025
:10086000DFF89880404502D14FF0030801E04FF0D7
:10087000040808FA06F848EA0508CCF808804D682C
:10088000D9F80060ED024D4601D5164300E09643CD
:100890002E604D68DAF80060AD02554601D516436A
:1008A00000E096432E604D68DBF80060AD035D46C6
:1008B00001D5164300E096432E604D68DEF80060D7
:1008C000ED03754601D5164300E096432E60641C87
:1008D0000D682A46E5407FF431AFBDE8F88F00008F
:1008E0000804014000001110001002400000014007
:1008F00000080140000C01400010014000140140BC
:1009000001488068704700000800002070B50400AE
:1009100025D094F83D00002520B984F83C502046AD
:1009200000F04EF9242084F83D002068016821F091
:10093000010101602068016841F400410160206804
:10094000016821F40041016000F096FA4D4A6168A7
:10095000914201D84C4900E04C49884201D2012023
:1009600070BD4B492368B0FBF1F15E6826F03F068D
:100970000E435E606368934206D94FF49673594301
:100980004FF47A73B1FBF3F12368491C1E6A26F019
:100990003F06314319626168914210D84900401EF8
:1009A000B0FBF1F2521CC2F30B02042A01D2042064
:1009B00022E0B0FBF1F0401CC0F30B001CE0A26889
:1009C000F2B301EBC10303EB0116431EB3FBF6F3D5
:1009D0005B1C43F480431B0549D092B301EBC10279
:1009E00002EB0111401EB0FBF1F0401CC0F30B0004
:1009F00040F4804040F400402168CA694CF6FF731F
:100A00009A431043C861D4E9071001432068026883
:100A100022F0C00211430160D4E9030101432068C0
:100A2000826848F2FF339A4311438160D4E905019B
:100A300008432168CA6822F0FF021043C86001E041
:100A40000EE016E02068016841F0010101602564B4
:100A5000202084F83D00256384F83E50002070BDBE
:100A600001EB4106431EB3FBF6F35B1CB3E7012029
:100A7000C2E701EB4101401EB0FBF1F0401CC0F3A6
:100A80000B00B7E7A086010080841E0000093D002E
:100A900040420F002DE9F84F1F4690468A46044613
:100AA000DDF82890FFF72CFF054694F83D0020283C
:100AB0007FD11923012240492046009500F004FE11
:100AC000002876D194F83C00012872D0012084F8E7
:100AD0003C0020680168C90703D1016841F00101A9
:100AE00001602068016821F400610160212084F820
:100AF0003D00102084F83E0000262664C4F82480BF
:100B00006785608D20852D48E0622B464A46514618
:100B1000204600F05FFD90B920684169806900902F
:100B200036E02A464946204600F074FE50B1206C5B
:100B3000042804D12068016841F40071016001209B
:100B4000BDE8F88F606A216800780861606A401C1F
:100B50006062618D491E6185218D491E89B22185A2
:100B600022685369DB435B070BD451B100781061F5
:100B7000606A401C6062608D401E6085208D401E52
:100B800020852A464946204600F072FD0028CED135
:100B9000208D0028C5D154F83D0B016841F4007147
:100BA0000160202004F81E09E67766770020C7E779
:100BB000FFE70220C4E70000020010000000FFFF72
:100BC00010B586B000210091019102910391006857
:100BD0000F4988421AD10F4CA06940F00800A0616B
:100BE000A069694600F008000490C020009012201F
:100BF0000190032003900848FFF792FDE06940F45C
:100C00000010E061E06900F40010049006B010BD2F
:100C10000054004000100240000C0140024881686E
:100C2000027811448160704708000020074810B521
:100C3000016841F010010160032000F075F80F20F9
:100C400000F006F800F024F8002010BD002002405B
:100C500070B50D4D04464FF47A712878B1FBF0F071
:100C60000A490968B1FBF0F000F0DCFA48B9102C31
:100C700007D200222146501E00F036F800206C609A
:100C800070BD012070BD000008000020140000208D
:100C90000C4808B5816941F001018161816901F069
:100CA00001010091C16941F08051C161C06900F04A
:100CB000805000900448416821F0E06141F00071EB
:100CC000416008BD0010024000000140002809DB1F
:100CD00000F01F02012191404009800000F1E02056
:100CE000C0F8001170470000F0B40E4B1B680C46B2
:100CF000C3F30223C3F10705042D00D90425191DF0
:100D0000072901D2002300E0DB1E012606FA05F1C7
:100D1000491E214099409E40761E16403143F0BC4A
:100D200001F000B90CED00E0064900F00702086888
:100D30004FF6FF03184040EA0220034A10430860C0
:100D4000704700000CED00E00000FA052DE9F047C7
:100D50000F46050061D0434E306800F00700B842EE
:100D600009D2306820F0070038433060306800F066
:100D70000700B84251D128683B4C810712D5400783
:100D800003D5606840F4E06060602878000703D510
:100D9000606840F4605060606068A96820F0F0000E
:100DA000084360602878C00728D06868012810D000
:100DB0002168022810D0890700292EDA616821F005
:100DC000030101436160FFF79BFD804641F28839D2
:100DD0000DE021688903EFE78901EDE7FFF790FD5A
:100DE000A0EB0801494502D90320BDE8F0876068FF
:100DF000696800F00C00B0EB810FEFD1306800F0B3
:100E00000700B8420BD9306820F007003843306043
:100E1000306800F00700B84201D00120E5E72878EB
:100E2000400705D56068E96820F4E0600843606029
:100E30002878000706D56068296920F4605040EAE8
:100E4000C100606000F038F86168084AC1F303111E
:100E5000515CC8400649086006480068FFF7F8FE84
:100E60000020C2E700200240001002406E26000869
:100E7000140000200C00002004480549006849685F
:100E8000044AC1F30221515CC8407047140000209D
:100E9000001002407E2600080448054900684968A1
:100EA000044AC1F3C221515CC840704714000020BD
:100EB000001002407E2600080E4A51680E4801F0DC
:100EC0000C03042B11D0082B0FD10C48C1F3834322
:100ED000C903C05C0AD55168084AC1F34041921E5B
:100EE000515C054A5043B0FBF1F070470449484358
:100EF000704700000010024000127A005E260008D1
:100F000000093D002DE9F84F040070D02078C04D55
:100F1000C00749D06868C0F38100012807D068681D
:100F2000C0F38100022809D16868C00306D528688B
:100F3000800339D560680028E7D035E06068B0F5F7
:100F4000803F0BD010B1B0F5A02F11D0286820F44D
:100F500080302860286820F4802002E0286840F46F
:100F600080302860606890B1FFF7CAFC06460AE04E
:100F7000286840F480202860F0E700BFFFF7C0FC3D
:100F8000801B642873D828688003F7D50CE0FFF72E
:100F9000B7FC064605E000BFFFF7B2FC801B6428E3
:100FA000F0D828688003F7D420789A4E80074FF055
:100FB00001094FF0000839D5686810F00C0F07D010
:100FC0006868C0F38100022809D16868C00306D4AC
:100FD0002868800714D52069012808D110E020690D
:100FE000B0B1C6F80090FFF78BFC074605E00AE1B8
:100FF000FFF786FCC01B0228C4D828688007F7D5F5
:101000002868616920F0F80040EAC10028600DE01E
:10101000C6F80080FFF774FC074604E0FFF770FC99
:10102000C01B022823D828688007F7D4207800073F
:101030002CD57948A169D9B1C0F80090FFF760FCC0
:10104000074604E0FFF75CFCC01B02280FD8686A63
:101050008007F7D571484FF4FA510068B0FBF1F002
:10106000009000BF0098411E0091FAD20EE080E08F
:10107000C0F80080FFF744FC074604E0FFF740FC9F
:10108000C01B022875D8686A8007F7D4207840070B
:1010900060D5E8690027C00008D4E86940F08050B6
:1010A000E861E869012700F0805000905C48016821
:1010B000C90513D40168834641F480710160FFF7CC
:1010C0001FFC824606E000BFFFF71AFCA0EB0A00F7
:1010D00064284ED8DBF80000C005F5D5E06801288B
:1010E0000AD008B1052813D0286A20F00100286230
:1010F000286A20F0040002E0286A40F0010028621B
:10110000E06841F2883B98B1FFF7FAFB82460BE0BA
:10111000286A40F004002862EEE700BFFFF7F0FB0A
:10112000A0EB0A0159455AD8286A8007F6D50CE089
:10113000FFF7E6FB824605E0FFF7E2FBA0EB0A01C2
:1011400059454CD8286A8007F6D41FB1E86920F0C9
:101150008050E861E06988B36968C1F381010229C0
:1011600044D00228C6F8608004D0FFF7C9FB0446CB
:1011700038E034E0FFF7C4FB074604E0FFF7C0FBAC
:10118000C01B02282BD828688001F7D4206AB0F54C
:10119000803F05D16868A16820F40030084368608A
:1011A000D4E908010843696821F4741108436860B0
:1011B000C6F86090FFF7A4FB044606E025E000BFF8
:1011C000FFF79EFB001B022809D828688001F7D58D
:1011D0001BE000BFFFF794FB001B022802D903208D
:1011E000BDE8F88F28688001F4D40EE00128F7D01C
:1011F0006868226A00F48031914204D1616A00F487
:101200007010884201D00120EAE70020E8E70000E2
:1012100000100240000042428004424214000020BC
:101220000070004010B5401EB0F1807F01D3012056
:1012300010BD4FF0E02460610F21601700F072FED6
:101240000020A06107202061002010BD704770477A
:10125000F8B5016804460868CA684B6910F00F0FBA
:101260004FF0000559D003F0010602F490773743A0
:1012700065D0C10705D0D10503D5616C41F00101EE
:101280006164410705D5D90703D0616C41F00201C3
:101290006164810705D5D90703D0616C41F0040171
:1012A0006164010707D502F02001314303D0616C6E
:1012B00041F008016164616C00293AD0800604D5D0
:1012C000900602D5204600F050FD20684069616C10
:1012D000C0F38010090700D460B3204600F01EFD63
:1012E00020684069400621D52068143050E8001F6E
:1012F00021F0400140E80012002AF5D1E06BA8B1CE
:101300006D494163E06BFFF7ADF9002811D0E06B48
:10131000416B01B0BDE8F040084783060FD5930646
:101320000DD52046BDE8F84000F01FBD2046FFF770
:101330008EFFF8BD2046FFF78AFF6564F8BD266B77
:101340002023012E7CD1C6067AD5D60678D508682A
:101350004868009048694FF00206400640D5E16BAE
:10136000086840680004000CE8D0A28D8242E5D9EC
:10137000E085886920282DD020680C3050E8001FB7
:1013800021F4807140E80012002AF5D12068143061
:1013900050E8001F21F0010140E80012002AF5D1B9
:1013A0002068143050E8001F21F0400140E800128E
:1013B000002AF5D184F84230256320680C3050E8CB
:1013C000001F21F0100140E80012002AF5D1E06B67
:1013D000FFF725F96663A08DE18D401A81B22AE0FE
:1013E000A08DE18D401A81B2E08D0028A6D00029A1
:1013F000A4D022680C3252E8000F20F4907042E82A
:101400000007002FF5D12068143050E8002F22F09B
:10141000010240E80027002FF5D184F8423025630F
:1014200020680C3050E8002F22F0100240E8002322
:10143000002BF5D166632046FFF708FFF8BDFFE7F4
:1014400005062BD5150629D594F841002128F5D19C
:10145000A068B0F5805F01D12069B0B1206A411C5D
:101460002162216800784860E08C401E0004000C76
:10147000E084E3D12068C16821F08001C160206868
:10148000C16841F04001C160D8E7206A0088C0F31C
:1014900008004860206A801C2062E5E74006CDD540
:1014A0005006CBD5CA68204622F04002CA6084F8B4
:1014B000413000F076F8C1E70D1D000870B504005A
:1014C00004D094F84100002510B106E0012070BD61
:1014D00084F84050204600F023F8242084F841008E
:1014E0002068C16821F40051C160204600F09EFCD4
:1014F0002068016921F4904101612068416921F06F
:101500002A0141612068C16841F40051C1606564ED
:10151000202084F8410084F842006563002070BDFB
:1015200030B585B0002400940194029403940068BF
:10153000184988422CD11848816941F48041816161
:10154000816901F480410491816941F00401816164
:101550008069124D00F0040004904FF40070009078
:10156000022001900320039069462846FFF7D8F82F
:101570002815CDE90004694628460294FFF7D0F803
:10158000002211462520FFF7AFFB2520FFF79EFB29
:1015900005B030BD00380140001002400008014095
:1015A00070477047FEE701684A69D24352050FD47D
:1015B0006FF480624A61002140F8301F202242739C
:1015C0008173026942F004020261017301207047D5
:1015D00000207047F8B50446C06A1E460D461746FF
:1015E000082807D0012805D010F5803F02D0206BD5
:1015F000122804D12068016841F48071016013460B
:1016000000224FF001112046009600F05DF840B135
:1016100020680068C00502D54FF4007020640320E4
:10162000F8BD2069B0F5804F0ED00620216800EA91
:10163000D51040F0F000086133463A460B49204689
:1016400000F08AF878B902E005F0FE0000E0E8B2A8
:1016500021680861054933463A46891F204600F053
:101660007BF80028DCD00120F8BD00000800010054
:1016700070B516460D4604461EE02046FFF793FF60
:1016800008B1012070BD681C16D0FFF739F9801B26
:10169000A84200D885B920684069C04340070BD5EF
:1016A000002044F8300F20216173A073216941F0BC
:1016B000200121612073E4E720684069C0434007AE
:1016C000DBD4002070BD00002DE9F0479846174696
:1016D0000D460446C1F30746DDF820902AE000BF1E
:1016E000B8F1FF3F26D0FFF70BF9A0EB0901414508
:1016F00002D8B8F1000F1DD12068012E16D08069E4
:1017000025EA00000004000C12D00020B84211D1DC
:10171000002044F8300F20216173A073216941F04B
:101720002001216120730120BDE8F0874069E7E7CF
:101730000120EBE72068012E0AD0806925EA00002D
:101740000004000C06D00020B842C9D00020EBE70E
:101750004069F3E70120F7E72DE9F0479846164680
:101760000D4604464FF000094FF0200AC1F3074729
:1017700023E020684069C043400515D42068016813
:1017800041F40071016021686FF480604861C4F821
:10179000309084F83DA084F83E90216C41F0040123
:1017A000216484F83C9021E0701C06D0FFF7A8F873
:1017B000A0EB0800B04203D816B1012F1FD021E0E2
:1017C0002068012F15D0806925EA00000004000C74
:1017D00018D000BF44F8309F84F80DA084F80E9014
:1017E000216941F02001216184F80C900120BDE8BD
:1017F000F087406925EA00000004000CEAD1206867
:10180000406901E02068806925EA00000004000CBE
:10181000AFD1ECE770B516460D4604461EE02046F3
:10182000FFF7C1FE08B1012070BD681C16D0FFF79C
:1018300067F8801BA84200D885B920684069C0437A
:1018400000060BD5002044F8300F20216173A073EF
:10185000216941F0200121612073E4E7206840699B
:10186000C0430006DBD4002070BD00000D4808B561
:10187000816941F020018161816901F020010091BD
:10188000816941F004018161816901F004010091E5
:10189000816941F008018161806900F008000090D1
:1018A00008BD0000001002400D4810B50B49016052
:1018B0000C49416000214FF480428160C0E903126D
:1018C00041618161C1610162FFF720F8002803D006
:1018D000BDE81040FEF7A1BE10BD0000005400405E
:1018E0002C000020801A06000C4810B50A4901603F
:1018F0004FF4E1314160002181600C22C160C0E9F8
:1019000004128161C161FFF7D9FD002803D0BDE851
:101910001040FEF782BE10BD00380140800000205C
:10192000FEE7FEE710B5AE2000F0D0F8202000F072
:10193000CDF8102000F0CAF8B02000F0C7F8C82099
:1019400000F0C4F8002000F0C1F8102000F0BEF84C
:10195000402000F0BBF8812000F0B8F8DF2000F054
:10196000B5F8A12000F0B2F8A62000F0AFF8A8204A
:1019700000F0ACF83F2000F0A9F8A42000F0A6F891
:10198000D32000F0A3F8002000F0A0F8D52000F04C
:101990009DF8F02000F09AF8D92000F097F8222066
:1019A00000F094F8DA2000F091F8122000F08EF8A0
:1019B000DB2000F08BF8202000F088F88D2000F06C
:1019C00085F8142000F082F800F008F800F046F9DD
:1019D000BDE81040AF2000F079B800004FF48061FE
:1019E0000148FEF7EABC000049010020FCB51C7864
:1019F000203AE61DF7085E785B687743FFB2079DE3
:101A000002FB07323346CDE9004500F0BFF8FCBDCC
:101A10002DE9FF4F18785978C01DC00800254843AC
:101A2000001D83B01C46174600F0FF0A2BE0781912
:101A3000814600F05EFA5FEA000827D000260AE03F
:101A40006168484606FB0A1B42465946FEF744FCBD
:101A5000F8B1761CF6B2207AB042F1D81098009016
:101A6000E368B8F1010F21D05FF02002DDE9030146
:101A7000FFF7BCFFE068417803980844C0B20390C8
:101A800005EB080085B2785D0028D0D107B0BDE82D
:101A9000F08F10992078CDE900016378DDE903012A
:101AA0000BF1040200F072F86178E5E77A5DDDE79A
:101AB00008B54FF0FF3200920B46024678210248EB
:101AC000FEF7E8FF08BD00002C0000200249487026
:101AD00002210148FFF7ECBF050000202DE9FC4181
:101AE00080460720CDE9000301F00704CD08164623
:101AF00002FA04F01F46C2B223464146284600F0CF
:101B000089F8002C0CD0601EC0B2CDE90007C4F1EA
:101B1000080026FA00F2681C0023414600F07AF81B
:101B2000BDE8FC812DE9FC4301F007061446CD0811
:101B30009846814601F0070106EB080204FA01F01D
:101B4000099F082A16D90721CDE90017C2B23346EA
:101B50004946284600F05EF808EB06000938C0B296
:101B6000CDE90007C6F1080024FA00F2681C002342
:101B7000494607E0521ED1B2CDE90017C2B2334642
:101B80004946284600F046F8BDE8FC832DE9FF4FA2
:101B900082B01D460F989346C70800F0070088469C
:101BA0000026019018E0029800240BEB060A00EBD7
:101BB00006090DE004FB05F0109B10F80A2008EB65
:101BC000C400C1B209F0FF00FFF788FF641CE4B253
:101BD000BC42EFD3761CF6B2AE42E4D301980028A3
:101BE00015D005FB07F6002408EBC7070DE0109899
:101BF0000090311902981BF801202044F9B2C0B2BC
:101C0000019BFFF78FFF641CE4B2AC42EFD306B038
:101C1000BDE8F08FF0B50828DDE9056419D2802908
:101C200017D20CB1D243D2B2FF25761C05FA06F6C4
:101C3000C3F10803084F46EA0204DD4007EBC01772
:101C4000044B785CB2432C43AA4320401A701043E3
:101C50007854F0BD040000204901002070B5104DFB
:101C600040200024287005F1810600BF04F1B00077
:101C7000C0B2FFF72BFF0020FFF728FF1020FFF76F
:101C800025FF06EBC4118022681CFEF751FB812161
:101C90000348FFF70DFF641CE4B2082CE6D370BDC7
:101CA000C800002070477047FEF7B8BF30B58FB04E
:101CB00028216846FEF7A3FB14210AA8FEF79FFB24
:101CC00001210804CDE900100024029402250491AA
:101CD000CDE907504FF4E01009906846FFF712F97C
:101CE00008B172B6FEE70F20CDE90A054FF4806017
:101CF000CDE90C4002210AA80E94FFF727F800282E
:101D000001D072B6FEE70FB030BD704710B5406A23
:101D10000021C185C184FFF79AFA10BD01680C311A
:101D200051E8002F22F4907241E80023002BF5D1F6
:101D30000168143151E8002F22F0010241E800232C
:101D4000002BF5D1016B012909D101680C3151E853
:101D5000002F22F0100241E80023002BF5D12021B2
:101D600080F8421000210163704708B590F84210D6
:101D7000222901D0022008BD82684FF480539A4284
:101D800001D1016921B1816A9A421BD04AB10AE0AE
:101D90000268816A5268C2F308020A80816A891C5B
:101DA00008E0026972B10268526802F07F020A70AC
:101DB000816A491C8162C18D491E0904090CC185D3
:101DC00003D01BE002685268F1E70168CA6822F09C
:101DD0002002CA600168CA6822F48072CA60016881
:101DE0004A6922F001024A61202180F84210002154
:101DF0004163026B012A03D0FFF7D2FB002008BD2C
:101E0000016301680C3151E8002F22F0100241E813
:101E10000023002BF5D101680A68D20602D50A68B2
:101E200049680091818DFFF711FAE7E770B5044624
:101E300000680169E26821F44051114301612169A0
:101E4000A0680843616908432168CA6841F20C63CD
:101E50009A430243CA6020684169A26921F4407133
:101E6000114341611E492068884202D1FFF714F8EE
:101E700001E0FFF701F800EBC00101EB0012606820
:101E800064218000B2FBF0F3B3FBF1F36FF01806AE
:101E90007343B2FBF0F5B2FBF0F605EB830532239A
:101EA00003EB0515B5FBF1F5B6FBF1F605F0F00512
:101EB00005EB0615B2FBF0F6B2FBF0F0B0FBF1F06B
:101EC0006FF01802504306EB800003EB0010B0FBEC
:101ED000F1F0216800F00F002844886070BD000018
:101EE000003801400148FFF7B3B90000800000202E
:101EF000FEE70078010601D4012070470621B1EB0E
:101F0000501F01D1022070470E21B1EB101F01D1EB
:101F1000032070471E21B1EBD00F01D10420704780
:101F2000002070470907090E002804DB00F1E020BB
:101F300080F80014704700F00F0000F1E02080F8F6
:101F4000141D704708B5FEF771FEFFF7AFFEFFF7EF
:101F50008DFCFFF7A9FCFFF7C7FC1420FEF7CEFBB2
:101F6000FFF7E0FC0026104C4FF47A75FEF7C8FC32
:101F70002168401AA842F9D3FFF730FDFEF7C0FCF4
:101F8000B0FBF5F209A10D48FEF722F90C4B0B4A04
:101F90000A2105200096FFF73BFDFFF75FFEFEF7E5
:101FA000AFFC2060E2E70000000000204F4C4544F9
:101FB0005F546573743A2564000000001800002027
:101FC0004C26000800000000000000000000000097
:101FD00000000000000000F80000000000000033D6
:101FE0003000000000100C06100C0600000000007D
:101FF0000000000040C07840C0784000043F040466
:102000003F040400007088FC08300000001820FF26
:10201000211E0000F008F000E018000000211C0361
:102020001E211E0000F00888700000001E212324DD
:102030001927211010160E000000000000000000FB
:1020400000000000000000E018040200000000078B
:102050001820400000020418E00000000040201892
:1020600007000000404080F0804040000202010F65
:1020700001020200000000F0000000000101011F49
:1020800001010100000000000000000080B07000AD
:10209000000000000000000000000000000101013D
:1020A00001010101000000000000000000303000CC
:1020B00000000000000000008060180400601806A6
:1020C0000100000000E010080810E000000F1020E0
:1020D00020100F00001010F8000000000020203F2A
:1020E00020200000007008080888700000302824B4
:1020F0002221300000300888884830000018202055
:1021000020110E000000C02010F800000007042479
:10211000243F240000F808888808080000192120BE
:1021200020110E0000E0108888180000000F112018
:1021300020110E0000380808C83808000000003FD1
:10214000000000000070880808887000001C222130
:1021500021221C0000E010080810E00000003122DD
:1021600022110F00000000C0C0000000000000307D
:1021700030000000000000800000000000008060CF
:102180000000000000008040201008000001020450
:102190000810200040404040404040000404040437
:1021A00004040400000810204080000000201008F3
:1021B00004020100007048080808F0000000003028
:1021C00036010000C030C828E810E00007182724B6
:1021D00023140B000000C038E0000000203C230264
:1021E0000227382008F8888888700000203F2020C7
:1021F00020110E00C03008080808380007182020F9
:102200002010080008F808080810E000203F2020EF
:1022100020100F0008F88888E8081000203F2020D0
:102220002320180008F88888E8081000203F2000C4
:1022300003000000C03008080838000007182020FC
:10224000221E020008F808000008F808203F2101BB
:1022500001213F20000808F8080800000020203F66
:102260002020000000000808F8080800C0808080D6
:102270007F00000008F888C028180800203F2001CF
:102280002638200008F8080000000000203F202029
:102290002020300008F8F800F8F80800203F003F40
:1022A000003F200008F830C00008F808203F200058
:1022B00007183F00E01008080810E0000F10202069
:1022C00020100F0008F808080808F000203F21013E
:1022D00001010000E01008080810E0000F18242495
:1022E00038504F0008F8888888887000203F200008
:1022F000030C3020007088080808380000382021BE
:1023000021221C00180808F8080818000000203FC7
:102310002000000008F808000008F808001F20202E
:1023200020201F000878880000C8380800000738FF
:102330000E010000F80800F80008F800033C070050
:10234000073C0300081868808068180820302C03B8
:10235000032C30200838C800C83808000000203F8F
:102360002000000010080808C8380800203826217E
:1023700020201800000000FE020202000000007F82
:1023800040404000000C30C0000000000000000190
:102390000638C00000020202FE000000004040407B
:1023A0007F000000000004020202040000000000A0
:1023B000000000000000000000000000808080801D
:1023C0008080808000020204000000000000000005
:1023D000000000000000808080800000001924229E
:1023E00022223F2008F8008080000000003F1120DA
:1023F00020110E000000008080800000000E1120DF
:1024000020201100000000808088F800000E1120BC
:1024100020103F200000808080800000001F2222CA
:1024200022221300008080F0888888180020203F36
:10243000202000000000808080808000006B949449
:102440009493600008F8008080800000203F210005
:1024500000203F2000809898000000000020203FCE
:1024600020200000000000809898000000C08080BC
:10247000807F000008F8000080808000203F240258
:102480002D302000000808F8000000000020203F48
:10249000202000008080808080808000203F2000FD
:1024A0003F20003F8080008080800000203F21008E
:1024B00000203F200000808080800000001F20203E
:1024C00020201F00808000808000000080FFA1206D
:1024D00020110E000000008080808000000E11207E
:1024E00020A0FF80808080008080800020203F210D
:1024F00020000100000080808080800000332424C0
:1025000024241900008080E0808000000000001F6B
:10251000202000008080000000808000001F20201C
:1025200020103F20808080000080808000010E30DD
:102530000806010080800080008080800F300C033E
:102540000C300F0000808000808080000020312E41
:102550000E312000808080000080808080818E701D
:102560001806010000808080808080000021302CCF
:102570002221300000000000807C020200000000E8
:10258000003F404000000000FF000000000000008D
:10259000FF0000000002027C800000000040403F7D
:1025A0000000000000060101020204040000000017
:1025B0000000000010080000C41F0008E6B3A200DD
:1025C0001060020CC000F8888888FF8888A818006E
:1025D00004047C0380601F80432C10284681800007
:1025E000E789B900403C10FF1010404848487F4838
:1025F000C8484000020602FF010100020A1242829E
:102600007F020200E5BE8B00001088C433105454D2
:1026100054FF54547C101000020100FF00101212ED
:1026200012FF121212100000E58AA8004044C444B0
:102630004444401010FF101010F00000103C131024
:1026400014B840300E014080403F000010100000E0
:10265000BC25000804000000B425000801020203A4
:102660000405060708090A0B0C0D0E0F10100000D8
:102670000000000000000102030406070809000032
:102680000000010203040000A8260008000000204A
:102690001800000028010008C026000818000020CB
:1026A000980B00004401000800000000000000003A
:1026B00001000000100000000000000000127A007D
:04000005080000ED02
:00000001FF
